:020000040800F2
:1000000000300020456000089560000895600008F9
:1000100095600008956000089560000800000000E9
:1000200000000000000000000000000095600008D3
:100030009560000800000000956000084D5C000815
:1000400095600008956000089560000895600008BC
:1000500095600008956000089560000895600008AC
:100060009560000895600008956000085D5C0008D8
:10007000956000089560000895600008956000088C
:10008000956000089560000895600008956000087C
:10009000956000089560000895600008695C00089C
:1000A000956000089560000895600008956000085C
:1000B00095600008715C0008000000009560000871
:1000C0009560000800000000000000009560000836
:1000D0000000000095600008956000087D5C000845
:1000E000895C000895600008000000000000000026
:1000F0000000000000000000000000000000000000
:1001000000000000000000000000000000000000EF
:10011000000000000000000095600008915C0008ED
:1001200000000000000000000000000000000000CF
:1001300000000000000000000000000000000000BF
:1001400095600008956000080000000095600008B8
:1001500095600008956000089560000895600008AB
:100160009560000895600008000000000000000095
:10017000000000000000000000000000000000007F
:0801800000000000956000087A
:1001880010B5054C237833B9044B13B10448AFF3C9
:1001980000800123237010BDF8010020000000003A
:1001A800BC82000808B5034B1BB103490348AFF3F1
:1001B800008008BD00000000FC010020BC8200088F
:1001C800034613F8012B002AFBD1181A013870478F
:1001D80081F0004102E000BF83F0004330B54FEAF0
:1001E80041044FEA430594EA050F08BF90EA020F5D
:1001F8001FBF54EA000C55EA020C7FEA645C7FEAF0
:10020800655C00F0E2804FEA5454D4EB5555B8BF12
:100218006D420CDD2C4480EA020281EA030382EA83
:10022800000083EA010180EA020281EA0303362D15
:1002380088BF30BD11F0004F4FEA01314FF4801CE8
:100248004CEA113102D0404261EB410113F0004FFA
:100258004FEA03334CEA133302D0524263EB4303B1
:1002680094EA050F00F0A780A4F10104D5F1200E4F
:100278000DDB02FA0EFC22FA05F2801841F10001AA
:1002880003FA0EF2801843FA05F359410EE0A5F17E
:1002980020050EF1200E012A03FA0EFC28BF4CF0AF
:1002A800020C43FA05F3C01851EBE37101F0004565
:1002B80007D54FF0000EDCF1000C7EEB00006EEB72
:1002C8000101B1F5801F1BD3B1F5001F0CD34908FC
:1002D8005FEA30004FEA3C0C04F101044FEA445253
:1002E80012F5800F80F09A80BCF1004F08BF5FEADA
:1002F800500C50F1000041EB045141EA050130BDBA
:100308005FEA4C0C404141EB010111F4801FA4F15C
:100318000104E9D191F0000F04BF01460020B1FAB1
:1003280081F308BF2033A3F10B03B3F120020CDAE9
:100338000C3208DD02F1140CC2F10C0201FA0CF0C7
:1003480021FA02F10CE002F11402D8BFC2F1200C2C
:1003580001FA02F120FA0CFCDCBF41EA0C019040E2
:10036800E41AA2BF01EB0451294330BD6FEA04042B
:100378001F3C1CDA0C340EDC04F11404C4F1200216
:1003880020FA04F001FA02F340EA030021FA04F328
:1003980045EA030130BDC4F10C04C4F1200220FA7F
:1003A80002F001FA04F340EA0300294630BD21FABD
:1003B80004F0294630BD94F0000F83F4801306BF83
:1003C80081F480110134013D4EE77FEA645C18BF77
:1003D8007FEA655C29D094EA050F08BF90EA020F0E
:1003E80005D054EA000C04BF1946104630BD91EA06
:1003F800030F1EBF0021002030BD5FEA545C05D109
:100408004000494128BF41F0004130BD14F5800447
:100418003CBF01F5801130BD01F0004545F0FE41BB
:1004280041F470014FF0000030BD7FEA645C1ABFF0
:10043800194610467FEA655C1CBF0B46024650EA27
:10044800013406BF52EA033591EA030F41F4002153
:1004580030BD00BF90F0000F04BF0021704730B5D9
:100468004FF4806404F132044FF000054FF00001AE
:1004780050E700BF90F0000F04BF0021704730B56F
:100488004FF4806404F1320410F0004548BF404244
:100498004FF000013EE700BF42004FEAE2014FEA99
:1004A80031014FEA02701FBF12F07F4393F07F4F74
:1004B80081F06051704792F0000F14BF93F07F4FA6
:1004C800704730B54FF4607401F0004521F00041E9
:1004D80020E700BF50EA010208BF704730B54FF06F
:1004E80000050AE050EA010208BF704730B511F074
:1004F800004502D5404261EB41014FF4806404F1AC
:1005080032045FEA915C3FF4DCAE4FF003025FEA2D
:10051800DC0C18BF03325FEADC0C18BF033202EBB5
:10052800DC02C2F1200300FA03FC20FA02F001FA0F
:1005380003FE40EA0E0021FA02F11444C1E600BFAE
:1005480070B54FF0FF0C4CF4E06C1CEA11541DBF61
:100558001CEA135594EA0C0F95EA0C0F00F0DEF82C
:100568002C4481EA030621EA4C5123EA4C5350EA11
:10057800013518BF52EA033541F4801143F4801362
:1005880038D0A0FB02CE4FF00005E1FB02E506F0F3
:100598000042E0FB03E54FF00006E1FB03569CF048
:1005A800000F18BF4EF0010EA4F1FF04B6F5007F4E
:1005B80064F5407404D25FEA4E0E6D4146EB0606C0
:1005C80042EAC62141EA55514FEAC52040EA5E5049
:1005D8004FEACE2EB4F1FD0C88BFBCF5E06F1ED8F3
:1005E800BEF1004F08BF5FEA500E50F1000041EB2A
:1005F800045170BD06F0004646EA010140EA0200D7
:1006080081EA0301B4EB5C04C2BFD4EB0C0541EAF8
:10061800045170BD41F480114FF0000E013C00F30D
:10062800AB8014F1360FDEBF002001F0004170BD31
:10063800C4F10004203C35DA0C341BDC04F114044A
:10064800C4F1200500FA05F320FA04F001FA05F2D6
:1006580040EA020001F0004221F0004110EBD370A3
:1006680021FA04F642EB06015EEA430E08BF20EACF
:10067800D37070BDC4F10C04C4F1200500FA04F372
:1006880020FA05F001FA04F240EA020001F0004104
:1006980010EBD37041F100015EEA430E08BF20EA77
:1006A800D37070BDC4F1200500FA05F24EEA020EBF
:1006B80020FA04F301FA05F243EA020321FA04F0EE
:1006C80001F0004121FA04F220EA020000EBD370A5
:1006D8005EEA430E08BF20EAD37070BD94F0000FA5
:1006E8000FD101F00046400041EB010111F4801FD9
:1006F80008BF013CF7D041EA060195F0000F18BF8A
:10070800704703F00046520043EB030313F4801FC5
:1007180008BF013DF7D043EA0603704794EA0C0F7F
:100728000CEA135518BF95EA0C0F0CD050EA410695
:1007380018BF52EA4306D1D181EA030101F0004112
:100748004FF0000070BD50EA410606BF104619463A
:1007580052EA430619D094EA0C0F02D150EA013646
:1007680013D195EA0C0F05D152EA03361CBF104687
:1007780019460AD181EA030101F0004141F0FE4126
:1007880041F470014FF0000070BD41F0FE4141F4AA
:10079800780170BD70B54FF0FF0C4CF4E06C1CEAAA
:1007A80011541DBF1CEA135594EA0C0F95EA0C0F5F
:1007B80000F0A7F8A4EB050481EA030E52EA03351A
:1007C8004FEA013100F088804FEA03334FF080553B
:1007D80045EA131343EA12634FEA022245EA111568
:1007E80045EA10654FEA00260EF000419D4208BF19
:1007F800964244F1FD0404F5407402D25B084FEAC6
:100808003202B61A65EB03055B084FEA32024FF471
:1008180080104FF4002CB6EB020E75EB030E22BFCE
:10082800B61A754640EA0C005B084FEA3202B6EB8E
:10083800020E75EB030E22BFB61A754640EA5C003D
:100848005B084FEA3202B6EB020E75EB030E22BFCD
:10085800B61A754640EA9C005B084FEA3202B6EBCE
:10086800020E75EB030E22BFB61A754640EADC008D
:1008780055EA060E18D04FEA051545EA16754FEAEF
:1008880006164FEAC30343EA52734FEAC2025FEA0D
:100898001C1CC0D111F4801F0BD141EA00014FF09C
:1008A80000004FF0004CB6E711F4801F04BF01436D
:1008B8000020B4F1FD0C88BFBCF5E06F3FF6AFAE89
:1008C800B5EB030C04BFB6EB020C5FEA500C50F119
:1008D800000041EB045170BD0EF0004E4EEA11319C
:1008E80014EB5C04C2BFD4EB0C0541EA045170BDA3
:1008F80041F480114FF0000E013C90E645EA060EE7
:100908008DE60CEA135594EA0C0F08BF95EA0C0F14
:100918003FF43BAF94EA0C0F0AD150EA01347FF45C
:1009280034AF95EA0C0F7FF425AF104619462CE733
:1009380095EA0C0F06D152EA03353FF4FDAE104696
:10094800194622E750EA410618BF52EA43067FF4E7
:10095800C5AE50EA41047FF40DAF52EA43057FF477
:10096800EBAE12E74FF0FF3C06E000BF4FF0010C82
:1009780002E000BF4FF0010C4DF804CD4FEA410CE6
:100988007FEA6C5C4FEA430C18BF7FEA6C5C1BD0B3
:1009980001B050EA410C0CBF52EA430C91EA030F34
:1009A80002BF90EA020F0020704710F1000F91EA91
:1009B800030F58BF994208BF90422CBFD8176FEA5F
:1009C800E37040F0010070474FEA410C7FEA6C5C2D
:1009D80002D150EA013C07D14FEA430C7FEA6C5C34
:1009E800D6D152EA033CD3D05DF8040B704700BF60
:1009F8008446104662468C461946634600E000BFAE
:100A080001B5FFF7B7FF002848BF10F1000F01BD7F
:100A18004DF808EDFFF7F4FF0CBF012000205DF84A
:100A280008FB00BF4DF808EDFFF7EAFF34BF0120CF
:100A380000205DF808FB00BF4DF808EDFFF7E0FF68
:100A480094BF012000205DF808FB00BF4DF808EDB9
:100A5800FFF7CEFF94BF012000205DF808FB00BF20
:100A68004DF808EDFFF7C4FF34BF012000205DF802
:100A780008FB00BF4FEA410C7FEA6C5C02D150EAE8
:100A8800013C0AD14FEA430C7FEA6C5C02D152EA7E
:100A9800033C02D14FF0000070474FF0010070474F
:100AA8004FEA410212F5001215D211D56FF478738E
:100AB800B3EB625212D94FEAC12343F0004343EA31
:100AC800505311F0004F23FA02F018BF404270470C
:100AD8004FF00000704750EA013005D111F0004096
:100AE80008BF6FF0004070474FF00000704700BF2C
:100AF80038B50022002304460D46FFF793FF28B9B6
:100B080020462946BDE8384000F00AB8204605F1DD
:100B1800004100F005F8404261EB410138BD00BFDB
:100B2800D0B500220E4B06460F46FFF709FD00F030
:100B38001BF80446FFF78EFC00220A4BFFF700FD66
:100B480002460B4630463946FFF746FB00F00CF8E4
:100B58002346002242EA000210461946D0BD00BFD3
:100B68000000F03D0000F0414A0011D212F50012D9
:100B780011D20DD56FF47873B3EB62520ED44FEAED
:100B8800C12343F0004343EA505323FA02F070476D
:100B98004FF00000704750EA013002D14FF0FF30AB
:100BA80070474FF00000704738B50E4A0E4B0546A7
:100BB80018784FF47A73B3FBF0F31068B0FBF3F0D6
:100BC80000F01EFD044658B90F2D09D802462946E3
:100BD8004FF0FF3000F0BCFC044B20461D6038BDD0
:100BE800012038BD1C000020000000200400002067
:100BF800074A08B5136843F010031360032000F098
:100C080089FC0020FFF7D0FF04F0D6FF002008BDC4
:100C180000200240034A044B11681B780B44136000
:100C2800704700BF3002002000000020014B186808
:100C3800704700BF3002002038B50446FFF7F6FFC2
:100C4800631C1CBF054B1B78054618BFE418FFF74B
:100C5800EDFF401B8442FAD838BD00BF00000020D9
:100C680038B503680446986800F00300012801D0ED
:100C7800002038BD1A68D207FAD59A6802F00D022A
:100C8800012A1BD19A6842F002029A6003221A6074
:100C9800FFF7CCFF054623689B68DB07E8D5FFF71D
:100CA800C5FF401B0228F6D9636C43F01003636448
:100CB800A36C43F00103A364012038BD636C43F0C7
:100CC80010036364A36C43F00103A36438BD000000
:100CD80070B596B0002300930446002800F0918177
:100CE8000368B3F1A04F07D09C4A934204D040F266
:100CF80009119B4804F05FFF636833F4403304D064
:100D08004FF48571964804F056FFA36833F0180332
:100D180004D040F20B11924804F04DFFE36833F021
:100D2800200304D04FF486718D4804F044FF2369F2
:100D3800012B04D940F20D11894804F03CFFE36906
:100D4800012B04D94FF48771854804F034FF236BD5
:100D580033F4406304D040F20F11814804F02BFFB4
:100D6800E36A012B1FD923F08002402A1BD023F409
:100D78008072802A17D0B3F5807F14D023F40072D4
:100D8800B2F5E07F0FD023F0C002B2F5007F0AD0A1
:100D9800B3F5507F07D0B3F5607F04D04FF4887166
:100DA8006F4804F008FF636B012B04D940F211115E
:100DB8006B4804F000FF6369042B06D0082B04D0AD
:100DC8004FF48971664804F0F6FEA36B012B04D931
:100DD80040F21311624804F0EEFEA369012B04D916
:100DE8004FF48A715E4804F0E6FE2369DBB1236A9A
:100DF800013B0F2B04D94FF48C71594804F0DBFEEA
:100E0800636A012B04D940F21911554804F0D3FE46
:100E1800636A43B1A36A013B072B04D94FF48E716F
:100E28004F4804F0C8FE636CDB0600F1D780636CA2
:100E3800002B00F09B80002123689A68D20002D51D
:100E48009B689B000AD5636C23F0120343F01003E0
:100E58006364A36C43F00103A3640121636CDE06A1
:100E680000F1C980002940F0C6802368986810F016
:100E7800040040F0C080626C22F4817242F00202E9
:100E8800B3F1A04F62640CBF344A4FF0A042019204
:100E98009A6802F00302012A02D11A68D50710D411
:100EA800019A3AB1956805F00305012D02D112683F
:100EB800D20706D42B4D6668AA6822F44032324322
:100EC800AA60A26BA668E569012AE26842EA0602FE
:100ED80018BF4FF4805042EA45320243606A012845
:100EE80007D1002D7CD1A06A013842EA404242F481
:100EF8008032E06A01281EBF256B284302439868A8
:100F080010F00C0F0BD1D868A56920F4804020F0B0
:100F18000200D860606B400040EA85300243DD681B
:100F2800114828400243DA602269012A05BF186B7C
:100F3800226A1A6B02F1FF3206BF20F00F0002434B
:100F480022F00F021A630023A364636C23F00303E7
:100F580043F001036364084616B070BD00010050F9
:100F6800D88200080003005007C0F0FFA36423657F
:100F7800E36484F84030204603F0CAFB23689B688A
:100F8800DE003FF558AF2046FFF76AFE636CDD06CA
:100F980001463FF551AF00287FF44EAF636C23F450
:100FA800885323F0020343F00203636423689A68BA
:100FB80022F040529A609A6842F080529A60124B2E
:100FC800124A1B68B3FBF2F20A2353430093009BB7
:100FD800002B3FF430AF009B013BF7E700213DE7D2
:100FE800606C20F0220040F020006064A06C40F0AB
:100FF8000100A0647DE7636C23F0120343F0100343
:1010080063640121A7E700BF1C00002040420F00D5
:10101800F0B597B0002300930368B3F1A04F0446DE
:101028000D4607D0954A934204D041F23A5194486C
:1010380004F0C1FD6B68013B0F2B04D941F23B5111
:101048008F4804F0B8FDAB68072B04D941F23C5136
:101058008B4804F0B0FDEB68012B04D941F23D51F7
:10106800874804F0A8FD2B69042B04D941F23E51AE
:10107800834804F0A0FD2368DA6812F0180F03D142
:101088006A69B2F5805F1DD3DA6802F01802082A8F
:1010980003D16A69B2F5806F14D3DA6802F01802D6
:1010A800102A02D16A69FF2A0CD9DB6803F01803F9
:1010B800182B02D16B693F2B04D941F23F5170487C
:1010C80004F079FDEB68012B2B6803F1FF3346D060
:1010D800112B04D941F24751694804F06CFD94F88A
:1010E8004030012B00F04C8123689A680120570793
:1010F80084F8400000F13F816868296804284FF0AF
:10110800060231D842431E6B1F20904026EA000099
:1011180001FA02F202431A639A6812F00C0F5ED1C8
:101128000929AE684FEA410246D90A4498691E3A2D
:101138000727974020EA070006FA02F202439A615D
:10114800DA682E696869C2F3C1025200013E904014
:101158008A06032E6ED8DFE806F03A525B640D2B40
:10116800BDD941F24B51B7E709280BD842435E6B12
:101178001E3A1F20904026EA000001FA02F20243BC
:101188005A63C9E70E280BD842439E6B3C3A1F208E
:10119800904026EA000001FA02F202439A63BBE794
:1011A8004243DE6B5A3A1F20904026EA000001FABB
:1011B80002F20243DA63AFE758690A440727974007
:1011C80020EA070006FA02F202435A61B8E71F6EE6
:1011D8002C4E42F000423E40324302431A669A685F
:1011E80002F00302012A40F0CD801A68D60740F1C8
:1011F800C9800020002384F8403017B0F0BD5F6E2E
:10120800204E42F000423E40324302435A66E6E72F
:101218009F6E1C4E42F000423E40324302439A66A3
:10122800DDE7DF6E174E42F000423E403243024394
:10123800DA66D4E7186E00F0F840904202BF186EE4
:1012480020F000401866586E00F0F840824202BF55
:10125800586E20F000405866986E00F0F8408242C0
:1012680002BF986E20F000409866D86E00F0F840F3
:101278008242B4D1DA6E22F00042D9E70001005070
:10128800D882000800F0FF83D3F8B02001208840FE
:1012980022EA0002C3F8B020102943D1464A9268D6
:1012A80012F4000FA5D1B3F1A04F0CBF434A4FF081
:1012B800A04201929A6802F00302012A02D11A6838
:1012C800D00752D4019A3AB1906800F0030001287F
:1012D80002D11268D20748D4102932D1B3F1A04FF5
:1012E80087D1354A936843F400039360344B354AF9
:1012F8001B68B3FBF2F20A2353430093009B002BB5
:101308003FF477AF009B013BF7E74D1C586905EBAD
:1013180045050722AA4020EA020006FA05F2024320
:101328005A61B9E7112904D1234A926812F0807FE3
:10133800B8E712297FF45DAF1F4A926812F4800F54
:10134800B0E7112909D1B3F1A04F7FF452AF1A4A7F
:10135800936843F0807393604BE712297FF449AF99
:10136800154A936843F48003F5E7636C43F0200360
:10137800636401203EE7636C43F02003636439E74C
:1013880002203AE7EA68012A7FF47EAFD3F8B0007A
:10139800AE688A4002430929C3F8B020B5D901EBE9
:1013A800410298691B3A0725954020EA050006FA8C
:1013B80002F202439A616FE70003005000010050F7
:1013C8001C00002040420F00F0B50368B3F1A04FA5
:1013D80097B004460D4604D041F617314A4804F048
:1013E800EAFB2A68092A04D840F2EF23D340DA0737
:1013F80004D441F61831444804F0DDFB2B68D3B11E
:101408006B6833F4004207D0B3F5404F04D041F67F
:101418001B313D4804F0CFFBAB6833F440730AD06E
:10142800B3F5806F07D0B3F5006F04D041F61C31D7
:10143800354804F0C0FB2068B0F1A04F0CBF334B17
:101448004FF0A0430193019A002A45D094F8403008
:10145800012B43D0012384F8403083685B0731D4E3
:1014680093685F072ED42A4E2968B36823F4604333
:1014780079B16F683B43676B43EA4733B36083686E
:1014880003F00303012B2BD10368DE0728D50020C6
:101498001DE0B360836803F00303012B02D10368E6
:1014A800D907F4D4936803F00303012B02D113681E
:1014B800DB07ECD4164A936823F4716323F00F0317
:1014C8009360E4E7636C43F0200363640120002326
:1014D80084F8403017B0F0BD0120FBE70220F9E79F
:1014E800936803F00303012B02D11368D807CED405
:1014F800074AA868936823F47163014323F00F0334
:1015080019439160C3E700BFD8820008000100506A
:1015180000030050C31E042B10B5044603D9BC2198
:10152800094804F048FB094AD36823F4E0631B0424
:101538001B0C43F0BF63240243F4003304F4E0645B
:101548001C43D46010BD00BF1383000800ED00E009
:101558000F2A70B504460E46154603D9D4211A48F9
:1015680004F029FB0F2E03D9D521174804F023FBDB
:10157800164BD968C1F30221C1F107030A1D042BD8
:1015880028BF04230120062A8CBF0339002100FA52
:1015980003F2013A8840324001388A400540002C65
:1015A80042EA05024FEA0212AFBF04F1604404F0B8
:1015B8000F04074BD2B2A5BF04F56144D2B21A5545
:1015C80084F8002370BD00BF1383000800ED00E01D
:1015D80014ED00E010B5041E03DAE821064804F013
:1015E800EAFA6209012304F01F0403FA04F4034B26
:1015F80043F8224010BD00BF1383000800E100E05B
:101608000138B0F1807F0AD2064B074A5860F021B2
:1016180082F823100020072298601A607047012082
:10162800704700BF10E000E000ED00E0042810B5AE
:10163800084C0AD020B140F2E111074804F0BBFA87
:10164800236823F00403236010BD236843F00403D8
:10165800F9E700BF10E000E013830008704708B501
:10166800FFF7FCFF08BD000010B50446002800F095
:1016780081800368404A934215D01432934212D0B5
:10168800143293420FD0143293420CD01432934246
:1016980009D01432934206D01432934203D0A421C5
:1016A800364804F088FA636833F0100206D0B3F5C0
:1016B800804F03D0A521314804F07DFAA36833F0A8
:1016C800400303D0A6212D4804F075FAE36833F0EF
:1016D800800303D0A721294804F06DFA236933F465
:1016E800807206D0B3F5007F03D0A821234804F008
:1016F80062FA636933F4806206D0B3F5006F03D0F1
:10170800A9211E4804F057FAA36933F0200303D037
:10171800AA211A4804F04FFAE36933F4405303D07E
:10172800AB21164804F047FAA068636821680343B0
:10173800E0680A6803432069034360690343A069BA
:101748000343E06922F47F5222F03002034313433B
:101758000B600B4B14220B44B3FBF2F39B00236486
:10176800084BE36300200123A06384F8213084F848
:10177800200010BD012010BD080002404E83000863
:10178800F8FFFDBF0000024090F82120022A10B5A2
:1017980003D004228263012010BD0268C46B116863
:1017A800436B21F00E011160116821F001011160F5
:1017B800026C012101FA02F26260002480F8211013
:1017C80080F8204013B19847204610BD184610BD38
:1017D800C16B026C036870B40E681D6804249440E1
:1017E80026420ED015F0040F0BD01A6892065EBF81
:1017F8001A6822F004021A60C36A4C6073B370BCA2
:10180800184702249440264212D015F0020F0FD038
:101818001A68950606D41A6822F00A021A6001238B
:1018280080F8213000234C6080F82030836AE5E797
:1018380008249440344211D02C070FD51C6824F09A
:101848000E041C60012303FA02F24A60836380F8E5
:101858002130002380F82030036BCFE770BC70473D
:101868002DE9F04FB0F1904F85B004460D4612D0E7
:101878008F4B98420FD003F5806398420BD003F545
:101888008063984207D003F50063984203D0C321D0
:10189800884804F090F92B689AB212B11B0C1B040B
:1018A8001BB1C421834804F086F96B68032B17D950
:1018B800A3F11102012A13D97F4923F400128A42A5
:1018C8000ED001F580118B420AD0A1F570218A4211
:1018D80006D07A4A934203D0C521764804F06BF9C2
:1018E800AB68022B03D9C621724804F064F9744F1F
:1018F800DFF8D09100262B6833FA06F202D105B042
:10190800BDE8F08F4FF0010A0AFA06FA13EA0A084E
:1019180000F0C5806B6823F01003022B2DD1B4F1C1
:10192800904F12D0624B9C420FD003F580639C42CB
:101938000BD003F580639C4207D003F500639C42FB
:1019480003D0D5215B4804F036F92B690D2B05D956
:101958000F2B03D0D621574804F02DF9F20804EBD9
:10196800820206F007039900106A0F238B4020EAD1
:1019780003002B698B40034313626B682068720075
:101988004FF0030B0BFA02FB03F003016FEA0B0B9A
:1019980023F0100300EA0B009140013B0143012BA7
:1019A80021601BD8EB68012B07D9032B05D0EA214E
:1019B8004048019204F0FFF8019AA168EB680BEA2D
:1019C800010193400B43A360636823EA0A0A6B682A
:1019D800C3F30013B34043EA0A036360E36868682B
:1019E8000BEA030BAB6803FA02F242EA0B02E2606D
:1019F800C20054D5BB6943F00103BB61BB6926F043
:101A0800030103F0010301F18041039301F58031E3
:101A1800039B8A6806F003034FF00F0C4FEA830E0E
:101A28000CFA0EF3B4F1904F22EA030C39D0204B94
:101A38009C4238D003F580639C4236D003F580631E
:101A48009C4214BF0523032303FA0EF343EA0C0355
:101A58008B60D9F800206FEA0801C30354BF0A401D
:101A680048EA0202C9F80020D9F80420830354BFC9
:101A78000A4048EA0202C9F80420D9F80820C3023B
:101A880054BF0A4048EA0202C9F80820D9F80C30C5
:101A9800820254BF0B4048EA0303C9F80C300136F0
:101AA80029E70023D0E70123CEE70223CCE700BFD4
:101AB800000400488683000800001110000022106E
:101AC800001002400004014070B5054616460C4659
:101AD80021B94FF4D871084804F06DF8012E06D9E1
:101AE80040F2B111044804F066F8AC6170BD002EF4
:101AF800FBD1AC6270BD00BF868300087047000050
:101B080008B5044B5969014202D05861FFF7F6FF46
:101B180008BD00BF0004014003689A69910744BFEB
:101B280000229A629A69D2075EBF9A6942F001025E
:101B38009A6170472DE9F04116461F4602681F4B0F
:101B4800069D9A4280460C4604D041F268211C4802
:101B580004F031F8B7F1007F07D037F0807304D074
:101B680041F26921164804F026F8164B9D420BD025
:101B780025F48062A3F500539A4205D025B141F2BD
:101B88006A210F4804F017F8C4F309033B432B43B9
:101B98006D0D05F48065D8F8001045F07F7545F4A3
:101BA80058354A6845F47F7545F0030543EA06430E
:101BB80022EA05052B434B60BDE8F0810054004044
:101BC800BF830008004000802DE9F041069F0446CD
:101BD800884616461D462268936938EA03030CBFF7
:101BE80001230023B34202D00020BDE8F0816B1C22
:101BF800F2D055B9202384F84130002384F84230CC
:101C080084F840300320BDE8F081FFF70FF8C01BCF
:101C18008542E0D2EEE7036870B50446986910F093
:101C280010000D46164612D170BD691C10D04DB972
:101C3800202384F84130002384F8423084F840306F
:101C4800032070BDFEF7F2FF801B8542F0D32368A6
:101C580099698A06E9D510222025DA612046DD61D6
:101C6800FFF75AFF2268536823F0FF7323F48B337E
:101C780023F4FF7323F001035360042363640023F8
:101C880084F8415084F8403084F84230012070BD17
:101C980070B504460D46164623689B695B070ED44B
:101CA800324629462046FFF7B6FFF0B923689A69FD
:101CB80091061CD59A69520703D5228D0AB10020D6
:101CC80070BD2021D9615A6822F0FF7222F48B324C
:101CD80022F4FF7222F001025A600023636484F840
:101CE800403084F8411084F84230012070BD5DB95D
:101CF800636C43F020036364202384F8413000239D
:101D080084F84030032070BDFEF790FF801B8542A9
:101D1800C2D2EDE770B504460D46164623689B69A6
:101D28009B0701D5002070BD324629462046FFF7A3
:101D380072FFB0B96A1CF1D06DB9636C43F020032F
:101D48006364202384F84130002384F8423084F807
:101D58004030032070BDFEF769FF801B8542DDD24D
:101D6800EBE7012070BD0000F7B5099E1F46174B31
:101D78000093044615460023FAB2FFF7DBFE32460D
:101D880008992046FFF7C6FF28B1636C042B10D1D1
:101D9800012003B0F0BD012F23680CD1EDB29D6284
:101DA800089B0096002240212046FFF70DFF0028DF
:101DB800EFD00320EDE72A0A9A62089932462046B6
:101DC800FFF7A8FF0028E0D12368E7E7002000809C
:101DD80070B504460D46164623689B699B0601D5D7
:101DE800002070BD324629462046FFF714FFA0B9EF
:101DF8006DB9636C43F020036364202384F8413099
:101E0800002384F8423084F84030032070BDFEF788
:101E18000DFF801B8542DFD2EBE7012070BD00007B
:101E280010B50446002800F092800268494B9A4297
:101E380004D040F2A311484803F0BDFEA368B3F5EF
:101E4800806F04D34FF4D271434803F0B4FEE368C3
:101E5800013B012B04D940F2A5113F4803F0ABFE2A
:101E6800236933F4004304D04FF4D3713A4803F0A4
:101E7800A2FE6369FF2B04D940F2A711364803F08C
:101E88009AFEA369072B04D94FF4D471324803F0A2
:101E980092FEE36933F4002304D040F2A9112E48DE
:101EA80003F089FE236A33F4003304D04FF4D5716C
:101EB800294803F080FE94F8413003F0FF0223B96B
:101EC80084F84020204602F03BFD242384F841306A
:101ED8002368E1681A6822F001021A60626822F039
:101EE80070621A619A68012922F400429A60A26815
:101EF80024D142F400429A605A68616942F0007243
:101F080042F400425A60DA6822F40042DA60226938
:101F18000A43A16942EA0122DA60216AE2690A43B6
:101F28001A601A6842F001021A60002020236064D7
:101F380084F84130206384F8420010BD42F4044222
:101F480002299A6004BF4FF400625A60D4E7012066
:101F580010BD00BF00540040BF8300082DE9F743BF
:101F6800984690F84130202B04460E46914640F0A2
:101F7800898090F84030012B00F08480012780F898
:101F88004070FEF753FE1923054600903A464FF479
:101F980000412046FFF718FE002848D1212384F885
:101FA8004130102384F842306064A4F82A80638D9D
:101FB800C4F824909BB2FF2B6063334B25D9FF22D2
:101FC800228500934FF0807331462046FFF7B2FD1B
:101FD800638D0A999BB22A462046F3B9FFF7F8FEAB
:101FE800F0B923682021D9615A6822F0FF7222F4DF
:101FF8008B3222F4FF7222F001025A6084F84110F9
:1020080084F8400084F842000EE0628D009392B29A
:1020180022854FF00073D2B2D6E7FFF77BFE40B1BE
:10202800636C042B03D1012003B0BDE8F0830320C7
:10203800FAE7636A2268591C61621B789362638DB0
:10204800228D013B013A9BB292B263852285002A18
:10205800BED1638D9BB2002BBAD000950A9B80211C
:102068002046FFF7B1FD0028E1D1638D9BB2FF2B1D
:1020780003D9FF2222850090A4E7628D009092B2D6
:102088002285C6E70220CFE7002000802DE9F7432C
:10209800984690F84130202B04460E46914640F071
:1020A800898090F84030012B00F08480012780F867
:1020B8004070FEF7BBFD1923054600903A464FF4E1
:1020C80000412046FFF780FD002848D1222384F8EC
:1020D8004130102384F842306064A4F82A80638D6C
:1020E800C4F824909BB2FF2B6063334B25D9FF22A1
:1020F800228500934FF0807331462046FFF71AFD82
:10210800638D0A999BB22A462046F3B9FFF760FE11
:10211800F0B923682021D9615A6822F0FF7222F4AD
:102128008B3222F4FF7222F001025A6084F84110C7
:1021380084F8400084F842000EE0628D009392B269
:1021480022854FF00073D2B2D6E7FFF7A1FD40B168
:10215800636C042B03D1012003B0BDE8F083032096
:10216800FAE7636A5A1C62622268526A1A70228D00
:10217800638D013A013B92B29BB222856385002AA6
:10218800BED1638D9BB2002BBAD000950A9B8021EB
:102198002046FFF719FD0028E1D1638D9BB2FF2B84
:1021A80003D9FF2222850090A4E7628D009092B2A5
:1021B8002285C6E70220CFE7002400802DE9F04FF2
:1021C8009A4685B0013B012B04460F460392BDF8A1
:1021D8003CB0DDF8409004D940F26771594803F0EB
:1021E800EAFC94F84130202B40F0A9800E9B1BB9E3
:1021F800012005B0BDE8F08FBBF1000FF8D094F8CE
:102208004030012B00F09B80012584F84050FEF7F8
:102218000DFD1923009006462A464FF4004120463A
:10222800FFF7D2FC8046D0B9222384F841304023FE
:1022380084F842300E9B606463626063A4F82AB03D
:102248000196CDF800905346039A39462046FFF789
:102258008BFD30B1636C84F84080042BC8D0032018
:10226800C7E7638D9BB2FF2B374B44D9FF220093FE
:1022780022854FF0807339462046FFF75BFC0096B5
:102288004B46002204212046FFF79EFC0028E6D199
:10229800636A5A1C62622268526A1A70228D638DC0
:1022A800013A013B92B29BB222856385BAB9638D2C
:1022B8009BB2A3B100964B4680212046FFF784FCD1
:1022C8000028CCD1638D9BB2FF2B1CD9FF2222851D
:1022D80000904FF0807339462046FFF72BFC638D42
:1022E8009BB2002BCBD1324649462046FFF770FD02
:1022F80088B1636CB1E7628D009392B222854FF08A
:102308000073D2B2B7E7628D009092B222854FF087
:102318000073D2B2DFE723682021D9615A6822F01E
:10232800FF7222F48B3222F4FF7222F001025A600B
:1023380084F8411084F8400084F8420059E70220EC
:1023480057E700BFBF8300080024008038B5026843
:10235800194B9A4204460D4603D07421174803F0DE
:102368002AFC35F4805303D07521144803F023FC6C
:1023780094F84120D2B2202A1CD194F84030012B85
:1023880018D0242384F841302368196821F001010A
:102398001960196821F48051196019680D431D608E
:1023A8001968002041F00101196084F8412084F87F
:1023B800400038BD022038BD00540040F7830008B3
:1023C80038B50268184B9A4204460D4603D0A2213C
:1023D800164803F0F0FB0F2D03D9A321134803F08F
:1023E800EAFB94F84120D2B2202A1BD194F840305D
:1023F800012B17D0242384F841302368196821F071
:1024080001011960196821F4706141EA0521196018
:102418001968002041F00101196084F8412084F80E
:10242800400038BD022038BD00540040F783000842
:102438002DE9F347044618B9012002B0BDE8F0873A
:10244800036833B1190704D140F25711BE4803F0AD
:10245800B2FB2368DA0719D423689B0700F1998037
:1024680023681D0700F11A812368580700F172815B
:10247800E369022B04D940F24621B34803F09BFBE1
:10248800E269002A40F004820020D6E7636833F44A
:10249800803207D0B3F5A02F04D040F25D11AA48CE
:1024A80003F089FBA94D6B6803F00C03042B07D0DC
:1024B8006B6803F00C03082B16D16B68DF0313D588
:1024C8004FF4003393FAA3F2296893FAA3F3B3FA0B
:1024D80083F303F01F03012202FA03F30B42BBD07C
:1024E8006368002BB8D1A7E76268B2F5803F25D1B1
:1024F8002B6843F480332B60EB6AA16823F00F0349
:102508000B43EB6252B3FEF791FB4FF40036804663
:10251800012796FAA6F32A6896FAA6F3B3FA83F384
:1025280003F01F0307FA03F3134295D1FEF77EFB6E
:10253800A0EB08006428ECD903207EE72B6832B9A9
:1025480023F480332B602B6823F48023D3E7B2F580
:10255800A02FF5D143F480232B60C9E7FEF766FB73
:102568004FF400368046012796FAA6F32A6896FAB1
:10257800A6F3B3FA83F303F01F0307FA03F3134236
:102588003FF46AAFFEF752FBA0EB08006428EBD9D2
:10259800D2E72369012B04D940F295116A4803F068
:1025A8000AFB63691F2B04D94FF4CB71664803F00B
:1025B80002FB664D6B6813F00C0F07D06B6803F0D5
:1025C8000C03082B22D16B68DE031FD4022393FA75
:1025D800A3F2296893FAA3F3B3FA83F303F01F0372
:1025E800012202FA03F30B4203D0236993427FF4DA
:1025F80023AF2968F82393FAA3F3B3FA83F2636944
:10260800934021F0F80213432B6029E72269012641
:102618000AB396FAA6F3B3FA83F303F1845303F5E6
:1026280084139B0002271E60FEF700FB804697FA82
:10263800A7F32A6897FAA7F3B3FA83F303F01F0303
:1026480006FA03F31342D4D1FEF7F0FAA0EB080020
:102658000228ECD970E796FAA6F3B3FA83F303F1EC
:10266800845303F584139B0002271A60FEF7DEFAF1
:10267800804697FAA7F32A6897FAA7F3B3FA83F381
:1026880003F01F0306FA03F313423FF4E9AEFEF723
:10269800CDFAA0EB08000228EBD94DE7A369012B7E
:1026A80004D94FF4EB71284803F085FAA269274E44
:1026B800274901251AB395FAA5F3B3FA83F30B4416
:1026C8009B0002271D60FEF7B1FA804697FAA7F330
:1026D80097FAA7F397FAA7F3726A97FAA7F3B3FAE8
:1026E80083F303F01F0305FA03F313427FF4BCAE30
:1026F800FEF79CFAA0EB08000228E7D91CE795FA38
:10270800A5F3B3FA83F30B449B0002271A60FEF784
:102718008DFA804697FAA7F397FAA7F397FAA7F3E3
:10272800726A97FAA7F3B3FA83F303F01F0305FA63
:1027380003F313423FF498AEFEF778FAA0EB0800D3
:102748000228E7D9F8E600BF3284000800100240EA
:1027580020819010E368012B06D9052B04D040F2A4
:1027680002219E4803F027FA9D4DEB69D90034D425
:10277800EB6943F08053EB61EB6903F080530193FD
:10278800019B0126974F3B68DA0528D5E368012BA2
:1027980036D12B6A43F001032B62FEF747FA022772
:1027A8008246B9464FF0010897FAA7F397FAA7F3BC
:1027B800002B65D02A6A99FAA9F3B3FA83F303F0D8
:1027C8001F0308FA03F3134251D0002E3FF450AE12
:1027D800EB6923F08053EB614AE60026D2E73B68B9
:1027E80043F480733B60FEF721FA80463B68DB05C3
:1027F800CCD4FEF71BFAA0EB08006428F6D99BE6B8
:102808003BBB2B6A23F001032B622B6A23F00403E2
:102818002B62FEF70BFA02278246B9464FF00108F1
:1028280097FAA7F397FAA7F373B32A6A99FAA9F361
:10283800B3FA83F303F01F0308FA03F31342C4D077
:10284800FEF7F4F941F28833A0EB0A009842E7D981
:1028580072E6052B2B6A03D143F004032B6298E739
:1028680023F001032B622B6A23F0040394E7FEF79D
:10287800DDF941F28833A0EB0A00984294D95BE66F
:1028880097FAA7F36A6A96E797FAA7F36A6ACDE711
:10289800534D6B6803F00C03082B3FF4CDAD022AAF
:1028A80074D1236A33F4803304D040F24F214B486B
:1028B80003F081F9636A33F4402223F4802110D0B5
:1028C800B2F5801F0DD0B2F5001F0AD0B1F5401F38
:1028D80007D0B3F5601F04D04FF414713F4803F0DC
:1028E8006AF94FF0807393FAA3F3B3FA83F303F111
:1028F800845303F584139B0000221A60FEF796F9AF
:102908004FF000778046012697FAA7F32A6897FACE
:10291800A7F3B3FA83F303F01F0306FA03F3134292
:102928002DD16A68636A216A22F474120B43134337
:102938006B604FF0807393FAA3F3B3FA83F303F158
:10294800845303F584139B004FF000741E60FEF758
:102958006DF90126074694FAA4F32A6894FAA4F3B9
:10296800B3FA83F303F01F0306FA03F313427FF469
:102978008BADFEF75BF9C01B0228ECD9DCE5FEF74E
:1029880055F9A0EB08000228BED9D5E54FF08073B1
:1029980093FAA3F3B3FA83F303F1845303F584138F
:1029A8009B0000221A60FEF741F94FF000740746B9
:1029B800012694FAA4F32A6894FAA4F3B3FA83F3E9
:1029C80003F01F0306FA03F313423FF45DADFEF76D
:1029D8002DF9C01B0228ECD9AEE500BF32840008EF
:1029E800001002400070004010B5134C616801F0FF
:1029F8000C03082B1ED14FF4701393FAA3F301F4C0
:102A08007012B3FA83F322FA03F30C4AD05CE36A38
:102A18000F2292FAA2F2B2FA82F203F00F03D34025
:102A2800074AD25CCB034ABF064B074BB3FBF2F312
:102A3800584310BD034810BD001002406A840008C6
:102A48007A84000800127A0000093D002DE9F0415F
:102A58000D46044610B90120BDE8F0810368180747
:102A680004D140F2BA21754803F0A5F8022D04D923
:102A780040F2BB21714803F09EF8714A136803F0D5
:102A880007039D4243D8236899074BD42368DA0784
:102A980067D46B4A136803F007039D42C0F0AA800D
:102AA8002368684D13F0040F40F0B08023681B07BB
:102AB80017D5236933F480620CD023F40072B2F581
:102AC800A06F07D0B3F5C06F04D04FF447715B48CF
:102AD80003F071F86B68226923F4605343EAC20378
:102AE8006B60FFF781FF6B68F02292FAA2F2B2FAEC
:102AF80082F203F0F003D340534AD35CD840534BDF
:102B080018600020FEF750F80020BDE8F081136837
:102B180023F007032B431360136803F007039D4258
:102B280099D1B0E7A36833F0800212D023F02002D5
:102B3800902A0ED023F04002A02A0AD023F01002D7
:102B4800C02A06D0F02B04D040F2D2213B4803F033
:102B580032F83C4AA168536823F0F0030B435360F2
:102B680094E76368022B04D940F2D921334803F073
:102B780022F86268334E012A29D14FF4003393FAC0
:102B8800A3F1316893FAA3F3B3FA83F303F01F03B5
:102B980002FA03F30B423FF45EAF736823F00303BA
:102BA8001A437260FEF742F841F2883807467368A4
:102BB800626803F00C03B3EB820F3FF46AAFFEF7D1
:102BC80035F8C01B4045F2D90320BDE8F081022A40
:102BD8000CBF4FF00073022393FAA3F1306893FA05
:102BE800A3F3B3FA83F303F01F03012101FA03F3FC
:102BF8000342D0E7136823F007032B4313601368DD
:102C080003F007039D427FF426AF49E7E36833F4F6
:102C180080620CD023F40072B2F5A06F07D0B3F530
:102C2800C06F04D040F21531044802F0C4FF6B684D
:102C3800E26823F4E06313436B6037E732840008EB
:102C480000200240001002408F8500081C00002070
:102C5800014B1868704700BF1C000020084B4FF458
:102C6800E0625B6892FAA2F2B2FA82F203F4E063DD
:102C7800D340044AD35C044A1068D840704700BF68
:102C8800001002409F8500081C000020084B4FF4EC
:102C980060525B6892FAA2F2B2FA82F203F46053CD
:102CA800D340044AD35C044A1068D840704700BF38
:102CB800001002409F8500081C0000200268854B18
:102CC8009A422DE9F347044603D97D21824802F050
:102CD80072FF2368DD032BD5636833F4407303D098
:102CE80083217D4802F067FF7C4DEB69D80000F135
:102CF8009580EB6943F08053EB61EB6903F08053F7
:102D08000193019B0126764F3B68D90540F18880E5
:102D18002B6A13F4407340F098802B6A626823F49E
:102D2800407313432B621EB1EB6923F08053EB61B0
:102D38002368D8070DD5A368032B03D9CA21664891
:102D480002F039FF654AA168136B23F003030B43B4
:102D58001363236899060ED5E36833F0100303D094
:102D6800EC215D4802F027FF5C4AE168136B23F011
:102D780010030B43136323681A0626D5236933F41B
:102D880080721BD023F02002B2F5887F16D023F082
:102D98004002B2F5907F11D023F01002B2F5A07F67
:102DA8000CD0B3F5B87F09D023F03003B3F5C07F5A
:102DB80004D040F26911484802F0FDFE474A2169F3
:102DC800D36A23F4F8730B43D3622368DB040FD56B
:102DD800636933F4807304D04FF4CD713E4802F038
:102DE800EAFE3E4A6169136B23F480730B43136355
:102DF800206810F4804025D0A36933F4805304D0B0
:102E080040F2DD11344802F0D6FE344AA169136B52
:102E180023F480530B431363002013E0002672E76A
:102E28003B6843F480733B60FDF700FF80463B68D6
:102E3800DA053FF56DAFFDF7F9FEA0EB0800642851
:102E4800F5D9032002B0BDE8F087626802F4407249
:102E580093423FF462AF296A4FF4803321F4407003
:102E680093FAA3F2DFF87CE0B2FA82F2724492009D
:102E78000127176093FAA3F3B3FA83F373449B0013
:102E880000221A60CB0728627FF547AFFDF7CEFE18
:102E98004FF002088246C14698FAA8F398FAA8F3B8
:102EA800A3B12A6A99FAA9F3B3FA83F303F01F03CB
:102EB80007FA03F313427FF430AFFDF7B7FE41F290
:102EC8008833A0EB0A009842E6D9BAE798FAA8F343
:102ED8006A6AE7E7A15001008A84000800100240EE
:102EE80000700040008190100368184A934210B5A2
:102EF80004461FD0B3F1804F1CD0A2F59432934200
:102F080018D002F54062934214D002F580629342D1
:102F180010D002F5963293420CD002F580629342AB
:102F280008D002F58062934204D040F25F1108484D
:102F380002F041FE2368DA6842F00102DA601A689A
:102F480042F001021A60002010BD00BF002C0140B1
:102F5800C58400087047704770477047704703681A
:102F68001A69910710B504460FD5DA6892070CD58F
:102F78006FF002021A619B6901229907027700F03B
:102F88008580FFF7E9FF0023237723681A69520732
:102F980010D5DA6850070DD56FF004021A619B69E5
:102FA800022213F4407F2277204675D0FFF7D4FF22
:102FB8000023237723681A6911070FD5DA681207E7
:102FC8000CD56FF008021A61DB6904229B0722778F
:102FD800204667D0FFF7C0FF0023237723681A69CC
:102FE800D00610D5DA68D1060DD56FF010021A6137
:102FF800DB69082213F4407F2277204658D0FFF778
:10300800ABFF0023237723681A69D20708D5DA684B
:10301800D00705D56FF001021A61204602F0AEF81C
:1030280023681A69110608D5DA68120605D56FF003
:1030380080021A61204600F0ECFE23681A69D00568
:1030480008D5DA68110605D56FF480721A61204632
:1030580000F0E0FE23681A69520608D5DA685006BF
:1030680005D56FF040021A612046FFF777FF236805
:103078001A69910622D5DA6892061FD56FF02002E8
:1030880020461A61BDE8104000F0C2BEFFF763FF9A
:103098002046FFF762FF76E7FFF75DFF2046FFF760
:1030A8005CFF85E7FFF757FF2046FFF756FF93E7DA
:1030B800FFF751FF2046FFF750FFA2E710BD0000C1
:1030C800214A0368904210B505D0B0F1804F02D074
:1030D8001E4CA0420CD14C6823F07003904243EA86
:1030E800040310D0B0F1804F0DD0184A90420AD096
:1030F800174A904207D002F58062904203D002F549
:103108008062904203D1CA6823F4407313434A692A
:1031180023F08003134303608B68C3620B688362E8
:10312800094B98420BD003F5A053984207D003F5FA
:103138008063984203D003F58063984201D10B69FC
:1031480003630123436110BD002C014000040040CB
:103158000040014010B50446002859D003682D4AA4
:1031680093421ED0B3F1804F1BD0A2F59432934204
:1031780017D002F54062934213D002F58062934261
:103188000FD002F5963293420BD002F5806293423B
:1031980007D002F58062934203D0D5211E4802F081
:1031A8000AFDA36833F0100209D023F04002202A58
:1031B80005D0402B03D0D621174802F0FCFC236928
:1031C80033F4807206D0B3F5007F03D0D7211248BC
:1031D80002F0F1FCA36933F0800303D0D8210E4834
:1031E80002F0E9FC94F83D3003F0FF0223B984F8BB
:1031F8003C20204602F0E2FD022384F83D3020689E
:10320800211DFFF75DFF012384F83D30002010BD2C
:10321800012010BD002C0140C584000810B50446EB
:1032280000285DD003682F4A93421FD0B3F1804F26
:103238001CD0A2F59432934218D002F54062934212
:1032480014D002F58062934210D002F59632934270
:103258000CD002F58062934208D002F58062934256
:1032680004D040F2EE31204802F0A5FCA36833F008
:1032780010020AD023F04002202A06D0402B04D0A6
:1032880040F2EF31184802F096FC236933F480725B
:1032980007D0B3F5007F04D04FF47C71124802F0D8
:1032A8008AFCA36933F0800304D040F2F1310E4860
:1032B80002F081FC94F83D3003F0FF0223B984F852
:1032C8003C202046FFF746FE022384F83D30206864
:1032D800211DFFF7F5FE012384F83D30002010BDC5
:1032E800012010BD002C0140C5840008036A23F0AA
:1032F80001032DE9F0410362056AD0F8048083696F
:103308000F6823F4803323F073031F438B6825F081
:1033180002051D43274B984204460E460BD003F581
:10332800A053984207D003F58063984203D003F571
:103338008063984236D1F36833F0080304D041F231
:103348009B211D4802F037FCF36825F008051D4352
:10335800184B9C4225F004050BD003F5A0539C4262
:1033680007D003F580639C4203D003F580639C4239
:1033780018D1B36933F4007304D041F2A8210E4880
:1033880002F019FC736933F4807304D041F2A92167
:10339800094802F010FC7369B26928F440781343B5
:1033A80043EA08087368C4F80480A7616363256268
:1033B800BDE8F081002C0140C5840008036A23F0B1
:1033C80010032DE9F0410362056AD0F8048083698F
:1033D8000F6823F0807323F4E64343EA07278B68DA
:1033E80025F0200545EA0315204B984204460E4671
:1033F80029D1CB6833F0080304D041F2E5211C48F9
:1034080002F0D9FBF36825F0800545EA031525F09D
:103418004005B36933F4007304D041F2F321144832
:1034280002F0C9FB736933F4807304D041F2F421CC
:103438000F4802F0C0FB7369B26928F4406813436F
:1034480048EA830809E00B4B9842E2D00A4B9C42B9
:10345800DFD003F580639C42DBD07368C4F8048036
:10346800A761A3632562BDE8F08100BF002C01407D
:10347800C58400080040014000440140036A23F469
:1034880080732DE9F0410362056AD0F80480C369AE
:103498000F6823F4803323F073031F438B6825F4EC
:1034A800007545EA0325204B984204460E4629D16B
:1034B800CB6833F0080304D041F234311B4802F0E2
:1034C8007AFBF36825F4006545EA032525F4806551
:1034D800B36933F4007304D041F24131134802F068
:1034E8006AFB736933F4807304D041F242310F48A8
:1034F80002F061FB7369B26928F44058134348EA43
:10350800031809E00A4B9842E2D00A4B9C42DFD0EC
:1035180003F580639C42DBD07368C4F80480E761DC
:10352800E3632562BDE8F081002C0140C5840008F2
:103538000040014000440140036A23F480532DE910
:10354800F0410362056AD0F80480C3690E6823F06D
:10355800807323F4E64343EA06268B6825F4005576
:1035680045EA0335134B984204460F460BD003F542
:10357800A053984207D003F58063984203D003F51F
:10358800806398420DD17B6933F4807304D041F293
:103598008231094802F00FFB7B6928F4804848EA29
:1035A80083187B68C4F80480E66123642562BDE85B
:1035B800F08100BF002C0140C584000810B5846864
:1035C8000A4324F47F4442EA03232343836010BD63
:1035D80090F83C30012B70B505460C464FF00200C0
:1035E8002CD0012385F83C300B6885F83D00B3F5F5
:1035F800805F0CD0B3F5005F09D033F0300306D0FC
:10360800402B04D040F6C871B64802F0D4FA2B68B3
:10361800B54A99680A409A602268402A00F0688191
:103628002CD8102A00F0BF8109D8002A00F0A18107
:103638000123002085F83D3085F83C0070BD202A24
:1036480000F0CB81302AF3D1A84A93420FD0B3F1CE
:10365800804F0CD0A2F59432934208D002F59E32E6
:10366800934204D041F250019E4802F0A4FA2A681D
:10367800936823F0700343F03703B2E0702A00F038
:10368800B28046D8502A00F0EB80602AD0D1974A01
:1036980093420FD0B3F1804F0CD0A2F594329342ED
:1036A80008D002F59E32934204D041F21A018D48A7
:1036B80002F081FA6368B3F5004F09D033F00202D3
:1036C80006D00A2B04D041F21D01864802F073FA95
:1036D800E3680F2B04D941F21E01824802F06BFA0D
:1036E8002B686668186AE46820F010001862996907
:1036F8001A6A21F4704122F0A00242EA061241EA55
:10370800043199611A629A6822F0700242F06702E5
:10371800E6E0B2F5805F3BD0B2F5005F88D1734A2E
:1037280093420BD0B3F1804F08D0A2F59432934264
:1037380004D040F6F7716B4802F03DFAA36833F401
:10374800405304D040F6FA71664802F034FA6368D0
:10375800B3F5004F09D033F0020206D00A2B04D08B
:1037680040F6FB715F4802F026FAE3680F2B04D994
:1037780040F6FC715B4802F01EFAE3686268A168D3
:103788002868FFF71BFF2A68936843F4804328E002
:10379800564A93421FD0B3F1804F1CD0A2F5943201
:1037A800934218D002F54062934214D002F5806229
:1037B800934210D002F5963293420CD002F5806203
:1037C800934208D002F58062934204D040F6D47147
:1037D800444802F0F0F92A68936823F4803323F010
:1037E8000703936024E7414A93420BD0B3F1804F1B
:1037F80008D0A2F59432934204D040F6DD713948DE
:1038080002F0D9F9A36833F4405304D04FF47E6131
:10381800344802F0D0F96368B3F5004F09D033F0AB
:10382800020206D00A2B04D040F6E1712D4802F0BE
:10383800C2F9E3680F2B04D940F6E271294802F077
:10384800BAF9E3686268A1682868FFF7B7FE2A68D2
:10385800936823F4803323F0770343F07703C0E7BA
:10386800224A93420FD0B3F1804F0CD0A2F5943284
:10387800934208D002F59E32934204D041F20B01E4
:10388800184802F098F96368B3F5004F09D033F08F
:10389800020206D00A2B04D041F20E01114802F0B0
:1038A8008AF9E3680F2B04D941F20F010D4802F0A1
:1038B80082F92B686168186AE6681C6A24F00104BA
:1038C8001C629A6920F00A0022F0F00242EA06120D
:1038D80001439A6119629A6822F0700242F0570215
:1038E8009A60A5E6C58400088800FEFF002C014008
:1038F800474A93420FD0B3F1804F0CD0A2F59432CF
:10390800934208D002F59E32934204D041F2290135
:10391800404802F050F96368B3F5004F09D033F01E
:10392800020206D00A2B04D041F22C01394802F0D9
:1039380042F9E3680F2B04D941F22D01354802F012
:103948003AF92B686168186AE6681C6A24F0010471
:103958001C629A6920F00A0022F0F00242EA06127C
:1039680001439A6119629A6822F0700242F0470294
:10397800B6E7274A93420FD0B3F1804F0CD0A2F597
:103988009432934208D002F59E32934204D041F219
:103998003801204802F00FF92A68936823F0700371
:1039A80043F007031DE71A4A93420FD0B3F1804F43
:1039B8000CD0A2F59432934208D002F59E3293427D
:1039C80004D04FF48251134802F0F5F82A6893683E
:1039D80023F0700343F0170303E70D4A93420FD017
:1039E800B3F1804F0CD0A2F59432934208D002F57F
:1039F8009E32934204D041F24801064802F0DBF8B7
:103A08002A68936823F0700343F02703E9E600BFB0
:103A1800002C0140C5840008036A23F48033036244
:103A2800026A30B54468436D0D6823F4803323F08F
:103A380070032B438D6822F4003242EA05420D4D93
:103A4800A8420BD005F5A055A84207D005F580651A
:103A5800A84203D005F58065A84204D14D6924F435
:103A6800803444EA0524446043654B6883650262F8
:103A780030BD00BF002C0140036A23F480130362A9
:103A8800026A30B54468436D0D6823F0807323F4EF
:103A9800E04343EA05238D6822F4001242EA055206
:103AA8000C4DA8420BD005F5A055A84207D005F546
:103AB8008065A84203D005F58065A84204D14D6908
:103AC80024F4802444EA8524446043654B68C36534
:103AD800026230BD002C0140142A70B504460D4620
:103AE800164600F21C81904BD340DB0704D440F209
:103AF8008A618E4802F05FF82B6823F0100223F4E5
:103B0800803323F01003602B07D0894B9A4204D0EE
:103B180040F28B61854802F04EF8AB6833F002033F
:103B280004D040F28C61814802F045F82B6933F0EB
:103B3800040304D040F28D617C4802F03CF894F80C
:103B48003C30012B4FF0020000F0ED800123082EDD
:103B580084F83C3084F83D0000F0898009D896B399
:103B6800042E5ED00123002084F83D3084F83C0008
:103B780070BD102E00F09D80142E00F0B5800C2E24
:103B8800F0D123686B4A93420BD0B3F1804F08D031
:103B9800A2F59432934204D040F2CC61634802F01B
:103BA8000AF829462068FFF7C7FC23682969DA69FB
:103BB80042F40062DA61DA6922F48062DA61DA6971
:103BC80042EA012273E023685A4A934217D0B3F1BC
:103BD800804F14D0A2F59432934210D002F59E3251
:103BE80093420CD002F58062934208D002F58062BD
:103BF800934204D040F299614C4801F0DCFF294619
:103C08002068FFF773FB236829699A6942F0080264
:103C18009A619A6922F004029A619A690A439A6140
:103C2800A0E72368434A93420FD0B3F1804F0CD0EA
:103C3800A2F59432934208D002F59E32934204D002
:103C480040F2AA61394801F0B6FF29462068FFF71B
:103C5800B5FB236829699A6942F400629A619A69F6
:103C680022F480629A619A6942EA0122D7E72368BE
:103C7800304A93420BD0B3F1804F08D0A2F594326A
:103C8800934204D040F2BB61284801F094FF2946D2
:103C98002068FFF7F3FB23682969DA6942F0080214
:103CA800DA61DA6922F00402DA61DA690A43DA6170
:103CB80058E722681F4B9A4204D040F2DD611B4846
:103CC80001F079FF29462068FFF7A6FE23682969D5
:103CD8005A6D42F008025A655A6D22F004025A657C
:103CE8005A6D0A435A653DE72268124B9A4204D03E
:103CF80040F2EE610D4801F05EFF29462068FFF7AB
:103D0800BBFE236829695A6D42F400625A655A6DF0
:103D180022F480625A655A6D42EA0122E2E73C2A9F
:103D28007FF4E5AEE8E670BD11111100FD840008CE
:103D380040000100002C0140F8B5334A0368934263
:103D480005460E4617D0B3F1804F14D0A2F5943231
:103D5800934210D002F5406293420CD002F5806283
:103D6800934208D002F59632934204D040F217717C
:103D7800264801F020FF336833F0300306D0402B8B
:103D880004D04FF4E361214801F015FFB36833F024
:103D9800800304D040F219711C4801F00CFF95F81B
:103DA8003C30012B2DD0012385F83C30164A2B6876
:103DB80093425C689F6815D1736833F440130DD043
:103DC800B3F5800F0AD0B3F5000F07D0B3F5400F55
:103DD80004D04FF4E5610D4801F0EDFE736824F45A
:103DE80070041C43336824F070041C43B36827F044
:103DF80080071F432B6800205C609F6085F83C00AB
:103E0800F8BD0220F8BD00BF002C0140FD84000869
:103E180070477047704703681A6822F490721A60F6
:103E28009A6822F001029A60202380F86A3070476D
:103E380090F86A30202B3DD1002939D0002A37D09C
:103E480090F86830012B35D0012380F868308368FA
:103E58004165B3F5805FA0F85820A0F85A2019D121
:103E68000369ABB940F2FF13A0F85C3000232222AB
:103E7800C36680F86A20026880F86830916841F06B
:103E880001019160116841F4907111601846704702
:103E9800FF23E9E723B90369002BF9D07F23E3E780
:103EA800B3F1805FE2D10369002BF7D03F23DBE752
:103EB80001207047022070477047704708B5406A74
:103EC8000023A0F85A30A0F85230FFF7F6FF08BDDB
:103ED80038B54268754B9A42044604D940F6390110
:103EE800734801F068FEA368B3F1805F07D033F42C
:103EF800805304D040F63A016D4801F05CFEE36857
:103F080033F4405304D040F63B01694801F053FEB6
:103F1800236933F4806207D0B3F5C06F04D040F64C
:103F28003C01634801F047FE636933F00C0200D19D
:103F380023B940F63D015E4801F03DFEA36933F424
:103F4800407304D040F63E01594801F034FE236A1C
:103F580033F4006304D040F63F01554801F02BFECE
:103F6800E36933F4004304D04FF40461504801F08E
:103F780022FE2169A3682568E26928680B43616904
:103F88000B434C49134301400B432B606B68E168BA
:103F9800206A23F440530B436B60A968A36921F49A
:103FA800306103430B43AB60434B9D4212D103F591
:103FB800584342491B6B03F00303B2F5004FCB5C37
:103FC8003BD1082B36D8DFE803F00F2124352D35F7
:103FD800353530003A4B9D4203D003F580639D424E
:103FE8005ED1B2F5004F31D1FEF738FE61684A085C
:103FF80002EB4003B3FBF1F39BB2002023F00F0266
:104008002168C3F342031343CB6038BDFEF73EFE7D
:10401800ECE76068430803F5740303F51053B3FB3A
:10402800F0F3E9E7FEF7E0FCE0E76068430803F532
:104038008033F4E701200023E0E7082B33D8DFE8DA
:1040480003F005101B32273232322A00FEF706FE33
:10405800636800EB5300B0FBF3F080B2E860002027
:1040680038BDFEF713FE636800EB5300B0FBF3F0B6
:10407800114B80B2D860F2E76268530803F5F40385
:1040880003F59053B3FBF2F30B4A9BB2D360E6E718
:10409800FEF7AAFCE7E76268530803F50043F1E777
:1040A800B2F5004FC6D0012038BD00BF405489008A
:1040B8003C850008F369FFEF0038014038850008A7
:1040C80000440040436AFF2B10B5044604D940F66B
:1040D800A2015C4801F06FFD636AD8070FD5A36A97
:1040E80033F4003304D040F6A701564801F063FDCD
:1040F8002268A16A536823F400330B435360636A50
:1041080099070FD5E36A33F4803304D040F6AE0143
:104118004C4801F050FD2268E16A536823F480336B
:104128000B435360636A5A070FD5236B33F480231C
:1041380004D040F6B501434801F03DFD2268216BEB
:10414800536823F480230B435360636A1B070FD51E
:10415800636B33F4004304D040F6BC01394801F0E6
:104168002AFD2268616B536823F400430B435360B4
:10417800636AD8060FD5A36B33F4805304D040F696
:10418800C301304801F017FD2268A16B936823F43E
:1041980080530B439360636A99060FD5E36B33F43E
:1041A800005304D040F6CA01264801F004FD2268F5
:1041B800E16B936823F400530B439360636A5A06D8
:1041C8002BD52268204B9A4204D040F6D1011D48D5
:1041D80001F0F1FC236C33F4801304D040F6D201D3
:1041E800184801F0E8FC2168226C4B6823F480131E
:1041F8001343B2F5801F4B600FD1636C33F4C003D7
:1042080004D040F6D7010F4801F0D5FC2268616C54
:10421800536823F4C0030B435360636A1B060FD52E
:10422800A36C33F4002304D040F6DF01054801F005
:10423800C2FC2268A16C536823F400230B4353602B
:1042480010BD00BF3C850008003801402DE9F04151
:10425800069D04460F46164698462168CA6937EAFD
:1042680002030CBF01220022B24202D00020BDE8A6
:10427800F0816B1CF2D09DB923681A6822F4D072C1
:104288001A609A6822F001029A60202384F8693043
:1042980084F86A30002384F868300320BDE8F08190
:1042A800FCF7C4FCA0EB08008542D6D2E4E72DE970
:1042B800F3411F4690F86930202B04460D4690467E
:1042C8004CD1002948D0002A46D090F86830012BFC
:1042D80044D0012380F868300023C366212380F886
:1042E8006930FCF7A3FCA4F850800646A4F8528075
:1042F800B4F8522092B262B9009733464021204662
:10430800FFF7A4FF98B9202384F8693084F868007F
:104318000EE0B4F852300097013B9BB2A4F852303B
:104328000022334680212046FFF790FF18B1032072
:1043380002B0BDE8F081A3682268B3F5805F07D1B9
:1043480023692BB935F8023BC3F308031385CFE77C
:104358002B7813850135CBE70120E9E70220E7E751
:1043680073B504460026C666FCF760FC23681B6824
:104378001A07054617D423681B685B070AD56FF030
:104388007E43009300222B464FF480012046FFF71E
:104398005DFFA0B92023002084F8693084F8680004
:1043A80084F86A300CE06FF07E430093324603468F
:1043B8004FF400112046FFF749FF0028DBD0032007
:1043C80002B070BD10B5044600284DD0816903685D
:1043D800264A00293CD093420CD0A2F5744293425D
:1043E80008D002F58062934204D040F2311120488F
:1043F80001F0E1FB94F8693003F0FF0223B984F877
:104408006820204601F0CCFD2268242384F8693016
:10441800136823F0010313602046FFF759FD0128B4
:1044280022D0636A13B12046FFF74CFE23685A680E
:1044380022F490425A609A6822F02A029A601A6816
:1044480042F0010220461A60BDE81040FFF788BF1D
:104458009342CFD0074A9342CCD002F58062934270
:10446800C8D04FF49B71C2E7012010BD003801404D
:104478003C8500080044004090F86930212B27D182
:10448800B0F8523002689BB24BB9116821F0800134
:104498001160116841F04001116000207047836885
:1044A800B3F5805FC36C0ED1016961B933F8021BA3
:1044B800C1F308011185C364B0F85230013B9BB2C7
:1044C800A0F85230E9E7591CC1641B781385F3E75B
:1044D80002207047016808B50B6823F040030B60A1
:1044E800202380F86930FFF7E7FC002008BD90F82A
:1044F8006A30222B10B5036829D1998C8368B0F8EB
:104508005C20B3F5805F02EA0102436D1BD10169AB
:10451800C9B923F8022B4365B0F85A40013CA4B24C
:10452800A0F85A406CB903681A6822F490721A60AD
:104538009A6822F001029A60202380F86A3000F01D
:104548005FFA002010BD591C41651A70E4E79A69AA
:1045580042F008029A61022010BD00000268D36987
:10456800116870B513F00F05044607D19E0605D5EE
:104578008E0603D5BDE87040FFF7B9BF9068002DDF
:104588005CD010F0010502D111F4907F56D0D80705
:1045980007D5CE0505D501201062E06E40F0010078
:1045A800E066980706D52DB102201062E06E40F053
:1045B8000400E0665E0706D52DB104201062E06EA7
:1045C80040F00200E066180707D58E0600D425B132
:1045D80008201062E26E0243E266E26E002A50D0C2
:1045E800980604D58A0602D52046FFF780FFE36EB9
:1045F8001B07204604D423689D6815F0400519D090
:10460800FFF709FC23689A6856060FD59A68606E0A
:1046180022F040029A6048B11A4B4363FDF7B4F8A0
:1046280078B3606EBDE87040436B18472046FFF7CB
:1046380044FC70BDFFF741FCE56670BDDD020ED598
:1046480046020CD54FF480131362202384F8693096
:10465800204684F86A30BDE8704000F015B81D06A1
:1046680006D5080604D52046BDE87040FFF704BF0C
:104678005A0606D54B0604D52046BDE87040FFF71C
:1046880029BF70BDC53E00087047000010B51E4820
:1046980000244FF440334FF0A04280E81C0001236F
:1046A8008AB0C361C3620362436304230461446242
:1046B8000463C460436184618463FCF709FB18B137
:1046C8004D21124801F076FA0AA90F4841F8244D05
:1046D800FCF77AFE18B155210C4801F06BFA01235A
:1046E800049305930622002304A90748079306921A
:1046F80008930993FCF78CFC18B16221034801F078
:1047080059FA0AB010BD00BF3402002075850008B0
:1047180070B50368B3F1A04F86B0064630D103F1F7
:10472800704303F5043300255A69164C42F0805251
:104738005A615B69039503F080530093009B012342
:1047480001934FF09040032301A90293FDF788F8E5
:104758000D4BA56084E828004FF4807323614FF463
:104768008063636120462023E560A361E561FCF76F
:104778007BFF18B18721054801F01CFAF4636662D3
:1047880006B070BD88020020080002407585000848
:104798000A4B07B55A6942F001025A615B69002267
:1047A80003F00103019311460B20019BFCF7D0FE97
:1047B8000B20FCF70FFF03B05DF804FB001002406C
:1047C800404B2DE9F0415A693F4E42F400225A61AC
:1047D8005A698AB002F400220092009A5A6942F497
:1047E80080025A615A6902F480020192019A5A6958
:1047F80042F400325A615A6902F400320292029A73
:104808005A6942F480225A615A6902F4802203925A
:10481800039A5A6942F480125A615B6903F480135F
:104828000022049320214FF09040049BFDF74CF99F
:104838004FF400530024059305A9244B06933046F2
:1048480003250794FDF70CF841F6DF7305A93046F8
:10485800059306950794FDF703F841F6D07305A96B
:104868004FF0904005934FF02008012706950794D4
:10487800FCF7F6FF05A94FF09040CDF81480069795
:1048880007940894FCF7ECFF114B069305A93046F2
:10489800CDF814800797FCF7E3FF4FF2773305A9AB
:1048A8000C48059306950794FCF7DAFF042305A93D
:1048B8000948059306950794FCF7D2FF0AB0BDE8AE
:1048C800F08100BF001002400008004800002110DD
:1048D8000000111000040048000C00481548164953
:1048E80008B540F20B2380E80A0001220023836008
:1048F800C260036143618361C3610362FDF790FA9B
:1049080018B142210D4801F055F900210948FDF779
:104918001DFD18B14921094801F04CF9002105484D
:10492800FDF74EFD28B150210448BDE8084001F0CC
:1049380041B908BDCC02002000540040828500081F
:10494800F0B50268154B9A4287B025D104244FF47C
:1049580000431227002603250DEB04014FF0904079
:1049680001930297039604950594FCF779FF802339
:104978000DEB04010A4801930297039604950594E8
:10498800FCF76EFF074BDA6942F40012DA61DB6963
:1049980003F400130093009B07B0F0BD00540040DF
:1049A800000400480010024010B5074C07490122D6
:1049B8002046FFF73DFA0A2320461A460449BDE877
:1049C8001040FFF774BC00BF50060020820300208F
:1049D8000B00002030B5074B074A1978074C002315
:1049E800184655781D550133994202F8010FF8DA37
:1049F80030BD00BF1802002013040020C2040020AC
:104A080038B502680F4B9A4210D10F4B0F4C1978EA
:104A18000F4A0D2911D12078431CDBB20A252370D7
:104A28001554D154FFF7D6FF0023237001220649FD
:104A38000848BDE83840FFF7FBB92378581C2070B8
:104A4800D154F3E7004800408203002018020020F8
:104A580014040020500600201FB564238DF80C10A4
:104A68008DF80D2000930146022303AA0248FDF7A2
:104A780075FA05B05DF804FBCC02002008B50022E9
:104A88006B21D020FFF7E8FF00221921D020FFF783
:104A9800E3FF06221A21D020FFF7DEFF00221B21A8
:104AA800D020FFF7D9FFD02008221C21FFF7D4FF20
:104AB8006420BDE80840FCF7BFB808B500226A21A9
:104AC800D020FFF7C9FF02223721D020FFF7C4FF0B
:104AD800782200213C20FFF7BFFF402201213C2023
:104AE800FFF7BAFF002202213C20FFF7B5FF642040
:104AF800FCF7A2F800223721D020FFF7ADFF9E2255
:104B08002521D020FFF7A8FF03222621D020FFF778
:104B1800A3FF82222721D020FFF79EFF9E22282173
:104B2800D020FFF799FF05222921D020FFF794FF15
:104B380082222A21D020FFF78FFF9E222B21D0200E
:104B4800FFF78AFF07222C21D020FFF785FF82225A
:104B58002D21D020FFF780FFD02020226A21FFF7E7
:104B68007BFF6420BDE80840FCF766B870B58AB0E2
:104B78001E238DF80F30A2238DF81430A4238DF84E
:104B88001530A6238DF81630A8238DF81730AA23E0
:104B98008DF818306425AC238DF819300DF10F020B
:104BA8000123EE2100952248214EFDF7D7F90A206E
:104BB800FCF742F8002405AA22440123EE210095BF
:104BC8003046FDF7CBF9C823009304AA0223EF214E
:104BD8003046FDF75BFA9DF81130ADF812309DF8BC
:104BE80010308DF8133007ABBDF8122023F81420CD
:104BF8000134062CDFD10F4BBDF81C201A800E4B58
:104C0800BDF81E201A800D4BBDF820201A800C4BD1
:104C1800BDF822201A800B4BBDF824201A800A4BBD
:104C2800BDF826201A800A20FCF706F80AB070BDE5
:104C3800CC0200203C05002080030020F80300205F
:104C4800C0040020300300205C05002000000000A4
:104C5800F0B58FB006AC0E260D4607463246002149
:104C6800204601F039FA642302932A4601238DE88D
:104C78005000394634488DF81850FDF79FFA002344
:104C88000AAAE15C8DF81710E11849788DF816101A
:104C9800BDF81610995202330E2BF2D1BDF9280037
:104CA800FBF7E8FB294BC3E90001BDF92A00FBF734
:104CB800E1FB274BC3E90001BDF92C00FBF7DAFB48
:104CC800244BC3E900014FF4AA73BDF92E0090FBF1
:104CD800F3F0FBF7CFFB18A3D3E90023FBF77EFA29
:104CE8001D4BC3E90001BDF93000FBF7C3FB14A35A
:104CF800D3E90023FBF74EFD184BC3E90001BDF9CA
:104D08003200FBF7B7FB0EA3D3E90023FBF742FD04
:104D1800134BC3E90001BDF93400FBF7ABFB08A353
:104D2800D3E90023FBF736FD0E4BC3E900010FB0B2
:104D3800F0BD00BFAFF30080A4703D0AD7434240E6
:104D48000000000000606040CC02002088030020C2
:104D58002805002050030020580300208805002063
:104D6800600500208804002030B58BB006AD002413
:104D78006423AC80029306230A46069401938DF8B7
:104D880018100123014600951A48FDF717FA234623
:104D980008AAE95C8DF81710E91849788DF81610FB
:104DA800BDF8161099520233062BF2D1BDF9200036
:104DB800FBF760FB0022104BFBF7ECFC0F4BC3E941
:104DC8000001BDF92400FBF755FB00220A4BFBF755
:104DD800E1FC0B4BC3E90001BDF92200FBF74AFBDC
:104DE8000022054BFBF7D6FC064BC3E900010BB0CC
:104DF80030BD00BFCC02002000A089403005002053
:104E080070030020A00400201FB500220292039224
:104E1800421C034622D001281DD164220092EE21B3
:104E28001E4A1F48FDF79AF8C823009302AA0423D4
:104E3800EF211B48FDF72AF99DF80A308DF80C3050
:104E48009DF809308DF80D309DF808308DF80E303A
:104E5800039A144B1A6005B05DF804FB64230093B1
:104E68000E4A0F480123EE21FDF778F8C823009376
:104E780002AA0423EF210A48FDF708F99DF80A3031
:104E88008DF80C309DF809308DF80D309DF80830FC
:104E98008DF80E30039A044BDCE700BF0A000020AF
:104EA800CC02002090040020100400202DE9F04FCF
:104EB800964B85B01868FBF7CDFA954B04461888D1
:104EC8000D46FBF7D7FA0022924BFBF739FB024657
:104ED8000B4620462946FBF77FF9FBF7E1FD8E4B91
:104EE80018608E4B054618886843FBF7C3FA002202
:104EF8004FF07A53FBF724FB0022894BFBF76EF93E
:104F0800FBF7CEFD874B044618886843FBF7B2FAD7
:104F180000224FF07E53FBF713FB834B064618889D
:104F28000F46FBF7A7FA0022804BFBF709FB024666
:104F38000B4630463946FBF751F9FBF7D9FD7C4B58
:104F4800CDE9000118886843FBF794FA0022794BF1
:104F5800FBF7F6FA784B064618880F46FBF78AFAED
:104F68000022764BFBF7ECFA02460B4630463946F0
:104F7800FBF734F9FBF7BCFDB4F5FA6FCDE9020194
:104F88006F4E80F2B7802846FBF774FA02460B464C
:104F9800FBF7D6FA00224FF07853FBF7D1FAFBF76C
:104FA800A7FDC6E90001A4F5FA60FBF763FA02461B
:104FB8000B46FBF7C5FA0022624B634DFBF7C0FABC
:104FC8000022624B80468946FBF7BAFAFBF790FD50
:104FD8005F4B06460F46C3E9006700225D4B40461B
:104FE8004946FBF7ADFAFBF783FD5B4B82468B46E0
:104FF8009C42C5E900AB3ADA04F2DC50FBF73AFA16
:1050080002460B46FBF79CFA8046894630463946ED
:10501800FBF768FA002206460F46504B40464946C1
:10502800FBF78EFA02460B4630463946FBF7D6F8B0
:10503800FBF75EFD464B0022C3E90001484B4046A2
:105048004946FBF77DFA0022404BFBF779FA064602
:105058000F4650465946FBF745FA02460B4630467E
:105068003946FBF7BBF8FBF743FDC5E90001344BB4
:105078001B68E41A3B4B1C60354BD3E90045DDE95E
:105088000023121B63EB05031D46374B1446C3E987
:1050980000452D4BDDE90201D3E90023801A61EBBD
:1050A80003010B4631490246C1E9002330490E6825
:1050B800A6FB000106FB0311FBF714FA00222D4B97
:1050C800FBF73EFA06460F4620462946FBF70AFA42
:1050D80002460B4630463946FBF77EF800224FF071
:1050E8007C53FBF72DFAFBF7DBFC234B186005B06C
:1050F800BDE8F08F164900220023C1E900231249B8
:10510800C6E90023C1E90023B1E700BF100400206D
:105118003003002000007040380500205C050020A6
:1051280000409F40C0040020800300200000F040A1
:10513800F80300200000703F3C0500200000E0401C
:105148002003002000001440780400200000E03F05
:10515800180300200000D03F24FAFFFF00001C4085
:1051680000002640FC0300204803002060030020C4
:10517800900400200000A03E580500200268044B5F
:105188009A4201BF034A136801331360704700BF96
:10519800001400402002002010B596B003230C93A1
:1051A8004FF4A0230D9300230E9301231093102393
:1051B80011934FF48033022414930CA84FF4E01396
:1051C80013941593FDF734F900B1FEE70F238DE82A
:1051D800180002904FF480630490214668460393B8
:1051E800FDF734FC00B1FEE72023089005A80593DD
:1051F800FDF764FD044600B1FEE7FDF729FD4FF415
:105208007A73B0FBF3F0FCF7FBF90420FCF70EFA15
:10521800224621464FF0FF30FCF79AF916B010BD30
:105228002DE9F04F2DED028B99B0FBF7E1FCFFF76C
:10523800B3FFFFF7C5FAFFF7ABFA00F06DFE00F019
:105248008DFE00F093FD00F013FEFFF71FFAFFF745
:1052580045FB00F053FD002211462820FCF778F9A1
:105268002820FCF7B7F9002211461720FCF770F93F
:105278001720FCF7AFF9FFF797FBFFF7FFFBFFF7E6
:105288001CFCFFF773FC0120FFF7BEFD4FF0FF3059
:10529800FFF7BAFDA84B1868FBF7DCF8A74B0446E4
:1052A80018880D46FBF7E6F80022A54BFBF748F9EE
:1052B80002460B4620462946FAF78EFFFBF7F0FB1D
:1052C800A04B1860A04B064618887043FBF7D2F82D
:1052D80000224FF07A53FBF733F900229B4BFAF781
:1052E8007DFFFBF7DDFB9A4B18609A4B18887043DB
:1052F800FBF7C0F800224FF07E53FBF721F9964BDD
:10530800044618880D46FBF7B5F80022934BFBF7C7
:1053180017F902460B4620462946FAF75FFFFBF7C6
:10532800E7FB8F4B04460D46C3E900458D4B1888B3
:105338007043FBF79FF800228B4BFBF701F98B4B6F
:10534800064618880F46FBF795F80022884BFBF7AE
:10535800F7F802460B4630463946FAF73FFFFBF7A7
:10536800C7FB844A0B4682E80900834A1268A2FBFD
:10537800000102FB0311FBF7B5F800227F4BFBF796
:10538800DFF806460F4620462946FBF7ABF80246EB
:105398000B4630463946FAF71FFF4FF07C53002280
:1053A800FBF7CEF8FBF77CFB754B764C18601423A3
:1053B80002934921D020FFF7D7FC3B21D020FFF7EB
:1053C80047FC714BDFF8F891DFF8F8816F4DDFF893
:1053D800F8B1DFF8F8A16E4F6E4ED3E90023D4E997
:1053E8000001FAF7FBFE6C4BCDE90401D3E9002379
:1053F800C4E90001D9E90001FAF7F0FED5E9002374
:10540800CDE90601C9E90001D8E90001FAF7E6FE8D
:10541800624BCDE90801D3E90023C8E90001DBE9C3
:105428000001FAF7DBFE5E4BCDE90A01D3E9002360
:10543800CBE90001DAE90001FAF7D0FE594BCDE9D2
:105448000C01CAE900015849D3E90023D1E9000158
:10545800FAF7C4FE544BC3E90001CDE90E01534BE2
:105468005349D3E90023D1E90001FAF7B7FE504BBD
:10547800C3E900014F4BCDE91001D3E90023D7E977
:105488000001FAF7ABFE4C4BCDE91201C7E9000168
:10549800D3E90023D6E90001FAF7A0FE029B013BFD
:1054A800CDE91401C6E90001029382D10022434BE1
:1054B800DDE90401FBF76EF90022C4E900013F4B66
:1054C800DDE90601FBF766F90022C9E900013B4B5B
:1054D800DDE90801FBF75EF90022C8E90001374B56
:1054E800DDE90A01FBF756F90022CBE90001334B4D
:1054F800DDE90C01FBF74EF90022CAE900012F4B48
:10550800DDE90E01FBF746F9274B0022C3E900014C
:105518002A4BDDE91001FBF73DF9254B0022C3E9D1
:105528000001264BDDE91201FBF734F90022234B79
:10553800C7E900014CE000BF100400203003002040
:1055480000007040380500205C05002000409F40A6
:10555800FC030020C0040020800300200000F0406D
:1055680048030020F80300200000703F3C0500209D
:105578000000E04060030020900400200000A03EEE
:1055880058050020780300208803002050030020DD
:10559800F0030020080400202805002088050020CA
:1055A80060050020880400208005002030050020C8
:1055B800B804002070030020A0040020000034403C
:1055C80050050020E003002038030020400500209B
:1055D800DDE91401FBF7DEF8C6E900014921D02016
:1055E800FFF7C2FB3B21D020FFF732FBBA49D4E9D1
:1055F8000023D1E90001FAF7EFFDB74BB74C0F468E
:10560800B7490646C3E90067D1E90001D9E9002393
:10561800FAF7E2FDB24B82468B46C3E900AB0020A5
:10562800D8E90023AF49FAF7D7FDD5E90023FAF7FF
:10563800D5FD8046894632463B46C5E90089304655
:105648003946FAF77DFF424606460F464B46404626
:105658004946FAF775FF02460B4630463946FAF7CF
:10566800BDFD41EC100B02F077FAB0EE401AF0EEF7
:10567800601A4BEC10AB02F06CFA91A3D3E900234B
:1056880051EC100BFAF75CFF934B93ED008B944BA6
:10569800D3E90023C4E9000110461946FAF750FF80
:1056A800D5E9008906460F4642464B4640464946DC
:1056B800FAF746FF02460B4630463946FAF78EFDA2
:1056C80041EC100B02F048FAB0EE401AF0EE601A06
:1056D800B0EE480AF0EE680A02F03BFA78A3D3E984
:1056E800002351EC100BFAF72BFFDFF854827E4EA3
:1056F800C8E900017D4900220023C6E900230A68A1
:10570800496801F100437A4943EC102B91ED001BE5
:1057180002F01FFA6CA3D3E9002351EC100BFAF73F
:105728005BFD0022734BFAF70BFF69A3D3E9002353
:10573800FBF730F800226F4BFAF750FDD6E9006707
:105748000B466D490246C1E9002330463946FAF74F
:1057580043FD6A4BC3E90001694BD4E90001C3E981
:105768000067684B684CC3E90001D8E90023C4E925
:105778000023664CC4E9000165496648C1E9002375
:10578800654BC3E90067FDF7AFFB644C236863B959
:10579800634B64481B686422012B009216BF0123E7
:1057A800614A624AEE21FCF7D9FB23680133092BD1
:1057B80023600DDD5A4D2868FFF726FB2B6801335F
:1057C80001D1FFF773FB2B685B422B60002323603A
:1057D8003B21D020FFF73CFA4921D020FFF7C4FA3B
:1057E800DFF8F4A0524B3E4D524CDFF82CB1D3E910
:1057F8000023DAE90001FAF7EFFC4F4B80468946AF
:10580800CAE90089D3E90023D5E90001FAF7E4FCE5
:105818004A4B41EC180BC5E90001D3E900230020ED
:105828003049FAF7D9FCD4E90023FAF7D7FC064641
:105838000F46C4E9006742464B4640464946FAF7D8
:105848007FFE3246804689463B4630463946FAF75F
:1058580077FE02460B4640464946FAF7BFFC41EC44
:10586800100B02F079F9B0EE401AF0EE601AB0EEC3
:10587800480AF0EE680A02F06CF911A3D3E9002394
:1058880051EC100BFAF75CFE144BC3E90001D5E9A3
:10589800002310461946FAF753FED4E900670D466F
:1058A800044632463B4630463946FAF749FE024638
:1058B8000B4620462946FAF791FC43E0AFF30080F7
:1058C8006666666666A64C402F6EA301BC05C23F9D
:1058D8007A008BFCFA21094088030020A8040020E4
:1058E800280500200000C040780500207003002033
:1058F8003005002000806640680500200004002074
:105908002803002070050020400300209804002090
:105918006803002010060020E80300201C02002075
:1059280018000020CC0200200800002009000020F8
:10593800780300205003002050050020E0030020D9
:105948004805002041EC100B9AED008B02F004F999
:10595800B0EE401AF0EE601AB0EE480AF0EE680AAF
:1059680002F0F7F88FA3D3E9002351EC100BFAF7F4
:10597800E7FD7B4BDFF834A21A685B68169203F1E7
:1059880000431793774B784C784D93ED001B9DEDB2
:10599800160BCAE9000102F0DCF867A3D3E900237B
:1059A80051EC100BFAF718FC0022714BFAF7C8FDFE
:1059B80063A3D3E90023FAF7EDFE00226C4BFAF754
:1059C8000DFC6C4BC3E900016B4BD3E90023FAF7DC
:1059D80005FC6A4B2268C3E90001694B1A60CDE9EE
:1059E80002012068FAF736FD57A3D3E90023FAF736
:1059F800D1FE0022634BFAF7F1FB02460B4600206A
:105A08006049FAF7C7FE604B06460F46D3E9002304
:105A1800D5E90001FAF7E0FBC5E900015B4B5C4DF5
:105A2800D3E90023CDE90401D5E90001FAF7D4FB55
:105A3800C5E90001574B584DD3E90023CDE90601CC
:105A4800D5E90001FAF7C8FB80468946C5E900890F
:105A5800206842F21075B0FBF5F0FAF7FBFC4246FD
:105A68004B46FAF76DFDDBE90023FAF7B7FB324640
:105A78003B46FAF765FD3246804689463B4600209C
:105A88004049FAF7A9FBDDE90223FAF759FD024676
:105A98000B4640464946FAF7A1FBDFF81481CBE9EB
:105AA80000012068B0FBF5F0FAF7D4FCDDE9042327
:105AB800FAF746FDD8E90023FAF790FB24A3D3E9C7
:105AC8000023FAF73DFD0F463449064622A3D3E9E1
